:020000040000FA
:060000008AEF09F0120076
:061000008AEF09F0120066
:021008001200D4
:021018001200C4
:02102A000000C4
:04102C00D9CFE6FF33
:10103000E1CFD9FF040EE126DE6ADD6ADECF00F0E3
:10104000DDCF01F0FD0EDBCF02F0FE0EDBCF03F0B3
:101050000250005C035001581AE2020EDB6A030ED4
:10106000DB6A020EDBCF00F0030EDBCF01F0C60E11
:10107000005C020E015806E2020EDB2A030E01E3B9
:10108000DB2AEFD7DF2A010E01E3DB2AD7D7040ED4
:10109000E15C02E2E16AE552E16EE552E7CFD9FF99
:1010A0001200D9CFE6FFE1CFD9FFFE0EDB50836EF1
:1010B0008490849284840F0EE66EE66AB7DFE55270
:1010C000E5528494E552E7CFD9FF1200380EE66E60
:1010D000E8DFE5520F0EE66EE66AA8DFE552E5525C
:1010E000010EE66EDEDFE5520F0EE66EE66A9EDF6B
:1010F000E552E5520C0EE66ED4DFE5520F0EE66EB9
:10110000E66A94DFE552E552800EE66ECADFE552EC
:101110000F0EE66EE66A8ADFE552E5521200D9CF7D
:10112000E6FFE1CFD9FFFE0EDB50836E8480849210
:1011300084840F0EE66EE66A79DFE552E552849408
:10114000E552E7CFD9FF1200D9CFE6FFE1CFD9FFB3
:10115000020EE126DE6ADD6ADE5000016A250F011B
:10116000E96EDD5000016B210F01EA6EEF5019E0CE
:10117000DE5000016A250F01E96EDD5000016B2190
:101180000F01EA6EEF50E66ECADFE5520F0EE66E13
:10119000E66A4CDFE552E552DF2A010E01E3DB2A65
:1011A000DBD7020EE15C02E2E16AE552E16EE55254
:1011B000E7CFD9FF1200D9CFE6FFE1CFD9FF0C0E60
:1011C000E126D9CFE9FFDACFEAFF480EEE6E490EED
:1011D000EE6EEE6AD950030FE96EDACFEAFF470EE2
:1011E000EE6E6F0EEE6EEE6E640EEE6E200EEE6E16
:1011F000420EEE6E790EEE6E650EEE6EEE6A0F0E1C
:10120000C16E956A966A62DF320EE66EE66A0EDF9E
:10121000E552E5520001D950030F6A6FDACF6BF047
:1012200093DF320EE66EE66A01DFE552E552C00E4C
:10123000E66E37DFE552D9CF6AF0DACF6BF084DFA4
:10124000FFD70C0EE15C02E2E16AE552E16EE55285
:06125000E7CFD9FF1200F8
:0A1256002A0EF66E100EF76E000E61
:10126000F86E00010900F550656F0900F550666FD2
:1012700003E1656701D03DD00900F550606F0900BA
:10128000F550616F0900F550626F09000900F550D3
:10129000E96E0900F550EA6E090009000900F550F1
:1012A000636F0900F550646F09000900F6CF67F01D
:1012B000F7CF68F0F8CF69F060C0F6FF61C0F7FFC4
:1012C00062C0F8FF0001635302E1645307E00900C4
:1012D000F550EE6E6307F8E26407F9D767C0F6FFD2
:1012E00068C0F7FF69C0F8FF00016507000E665B84
:0412F000BFD7120052
:0C12F400000EF36E00EE00F0080E01D8B2
:101300001200EA6002D0EE6AFCD7F350E9601200E6
:04131000EE6AFCD7AE
:0C13140013EE00F023EE00F0F86A059CD8
:101320002BEC09F098EC09F0DBEC08F0FBD712008D
:021330001200A9
:00000001FF
