:020000040000FA
:0600000095EF08F012006C
:0610000095EF08F012005C
:0610080076EF08F0120073
:02102A000000C4
:04102C002A0EF66E24
:10103000100EF76E000EF86E00010900F550656F96
:101040000900F550666F03E1656701D03DD00900E6
:10105000F550606F0900F550616F0900F550626F3F
:1010600009000900F550E96E0900F550EA6E090023
:1010700009000900F550636F0900F550646F09001D
:101080000900F6CF67F0F7CF68F0F8CF69F060C0DD
:10109000F6FF61C0F7FF62C0F8FF0001635302E191
:1010A000645307E00900F550EE6E6307F8E2640749
:1010B000F9D767C0F6FF68C0F7FF69C0F8FF000105
:0A10C0006507000E665BBFD7120043
:0610CA000F0EC16EF19E45
:1010D00093908190030ED56E6D0ED76E260ED76E4F
:1010E000F294F28AF28ED58EFFD71200DACFE4FFA7
:1010F000E2CFDAFFE6526D0ED76E260ED66E817005
:0A110000F294E552E5CFDAFF11008A
:06110A00000EF36E00EE82
:1011100000F0080E01D81200EA6002D0EE6AFCD797
:0A112000F350E9601200EE6AFCD7FC
:06112A0013EE00F023EEBD
:1011300000F0F86A019C16EC08F0A3EC08F065ECEE
:0611400008F0FBD71200CD
:02114600120095
:00000001FF
